:020000040800F2
:10000000786B0020015E0008515C0008535C00081A
:1000100000000000000000000000000000000000E0
:10002000000000000000000000000000E550000893
:100030000000000000000000A7500008555C000808
:100040005B11000800000000D711000887140008A9
:10005000DB1400085B180008615C00086B5C00089A
:10006000000000009F180008A3180008732900086A
:10007000E74A00089F50000867530008000000008E
:10008000C75D0008755C0008EF5D00082B5E000886
:100090002D5E00082F5E0008315E0008335E000808
:1000A000355E0008375E0008395E00083B5E0008D8
:1000B0003D5E00087F5C00080000000000000000BA
:1000C000F0B5A5B004000D002A9E00BF73A003C8C0
:1000D0006F4603C7089506A83B214654002011909F
:1000E00004940392029313E0039C3500049F21784B
:1000F0000898B8470890002800D1B5E01198401C36
:100100001190641C6D1EF2D104970398801903901E
:1001100003980078252809D100260B960C960D9699
:100120000E960F9610960021039C0FE00021C94304
:100130006A46039800F0F6FF060001D1119895E099
:10014000D2D50126E1E7012008430100641C207894
:100150002028F8D023280CD02B2804D02D2804D018
:1001600030280AD084E00220EEE70A00042111437F
:10017000ECE7080008210143E8E708001021FAE74E
:1001800013960AE0139A444B9A4205DA93009A18A0
:100190005200101830381390641C20780200303A56
:1001A0000A2AEFD320782E2803D00020C0431290D3
:1001B00027E0641C22782A2A0AD102980068029A51
:1001C00010600268001D029B18601292641C18E007
:1001D0002D2A01D1641C00E0002212960CE0002AB6
:1001E00009D1129B2C4DAB4205DA9D00EB185B0048
:1001F000181830381290641C20780300303B0A2B0A
:10020000EDD306AD2987277826A0390000F09AFFA4
:10021000002801D0641C00E000273A202F54285CFD
:10022000682804D12178682901D1622005E06C2872
:1002300006D120786C2803D171203A216854641CBF
:1002400016A80A902378029A06A9049800F068F884
:10025000611C0391002807D116AA06A9049800F092
:10026000F9F9002800D453E70020C04325B0F0BDC1
:100270002A2885D10298026802601068121D029B2C
:100280001A601390002804D5424213920A000421F8
:100290001143641C86E70000CBCCCC0C00000000AE
:1002A00000000000686A6C747A4C00000B00622841
:1002B0001CD068280DD06A2803D06C2823D0712860
:1002C00021D11A68D21D072082431A6003CA1A601E
:1002D0007047002A19681960086803D0091D196061
:1002E00000B217E0091D196080B217E0002A1968F2
:1002F0001960086803D0091D196040B20AE0091DA1
:100300001960C0B20AE0002A19681960086803D0B1
:10031000091D1960C1177047091D19600021704738
:100320007CB50C0011001E0025693200253A00D171
:100330004AE11C3A00D182E0121F022A00D87EE076
:100340000E3A00D104E1521F58D0093A77D0921EDC
:1003500016D0521E34D0521E022A70D9121F2FD02E
:10036000521F00D194E0521E48D0521E00D1DEE050
:10037000D21E00D1FAE0921E40D0D21E3ED029E11A
:100380003A22A25C6C2A09D06069421C62610A6848
:100390000A601368121D0A602B5425E10A680A607E
:1003A0001368121D0A60009300210191C943216363
:1003B0006A46210000F0D0F9002800D414E100E1E1
:1003C00001223A20205CFFF771FF03C4083C00299A
:1003D00004DA6069411C61612D210DE0208F8107E5
:1003E00004D56069411C61612B2105E0C00721D55E
:1003F0006069411C6161202129541BE000223A20E0
:10040000205CFFF753FF03C4083C3820205C000742
:1004100010D503CC083C002901D100280AD02020A7
:100420003043782806D1606930212954401C411C92
:1004300061612E5460692818E060310084E008682A
:10044000C01D0722904308600CC808600CC4083C1B
:1004500003CC083CC80F04D06069411C61612D21A8
:100460000DE0208F810704D56069411C61612B215B
:1004700005E0C00704D56069411C61612021295451
:1004800060692818E0603100200000F081FAABE0DC
:100490003B20205C002803D00024E44353A074E0F8
:1004A0003A20205C622808D0682823D06A2812D01D
:1004B0006C282ED071280ED02BE00A680A601068D4
:1004C000121D0A60002803D10024E4434DA05CE023
:1004D000E16A017088E0086808600268001D086031
:1004E000002A03D10024E44346A04EE0E06AC1178D
:1004F00003C279E00A680A601068121D0A600028C9
:1005000004D10024E44300BF3EA03EE0E16A018044
:100510006AE00A680A601068121D0A60002803D1A8
:100520000024E44337A030E0E16A01605CE0086841
:1005300008600268001D08600020C04300211040D0
:1005400003C4083CE5607821200000F069F94BE025
:100550006C223A23E2540B680B601A681B1D0B6077
:10056000002A29D10024E4432CA00EE03A22A25C08
:100570006C2AF0D0086808600568001D0860E56016
:10058000002D06D10024E4432BA000F0E7FD201A43
:1005900076BD266B002E03D5280000F003FE09E08F
:1005A00032000021280000F005FE002801D0401B89
:1005B00000E03000A06117E0210000F0CDF8002835
:1005C00012D50020C04376BD6069411C61612521C0
:1005D000295409E06169481C606125226A54310090
:1005E00002D0411C61612E54002076BD7072696E8C
:1005F00074665F733A20256E20646973616C6C6F5A
:10060000776564007072696E74663A206261642076
:10061000256E20617267756D656E74007072696E0B
:1006200074665F733A2062616420256C7320617286
:1006300067756D656E7400007072696E74665F73C5
:100640003A2062616420257320617267756D656E62
:1006500074000000F8B506000C001700606B6169BB
:10066000401A216A401AA169401A616A401AE16978
:10067000401AA16A401A00903820205C40070ED42E
:10068000009800280BDD05462021A068B047A06037
:1006900000285DD0E06A401CE0626D1EF4D13A0093
:1006A00063692100300000F0EAFC002850D1256A7F
:1006B000002D0ADD3021A068B047A060002847D097
:1006C000E06A401CE0626D1EF4D1A369E26821007B
:1006D000300000F0D4FC00283AD1656A002D0ADD14
:1006E0003021A068B047A060002831D0E06A401CEB
:1006F000E0626D1EF4D1E369E068A169421821004F
:10070000300000F0BCFC002822D1A56A002D0ADDD3
:100710003021A068B047A060002819D0E06A401CD2
:10072000E0626D1EF4D13820205C40070ED50098A1
:1007300000280BDD05462021A068B047A0600028F6
:1007400006D0E06A401CE0626D1EF4D10020F2BDCC
:100750000020C043F2BD0000F8B5A6B004000D00B3
:1007600016002F6B002F00D5864F00F02FFD696B10
:100770000A1800BF28A003C803AB03C3812A47D2CD
:100780000020059400950290002F30DD03AA316807
:1007900001A800F0CCFC05003AD43068002801D153
:1007A0006D1E35D4AF4222DB009840694019812884
:1007B0000CD300240098446306AA00990598FFF71B
:1007C00049FF0290002812D40098446100984469BF
:1007D00006A82A0001A9001900F0FEFC6019009982
:1007E00048613068002802D0361D7F1BCCE7059B8E
:1007F000009C0298002804D106AA21001800FFF7E7
:1008000029FF002802D100216161616327B0F0BD9A
:100810000020C043FAE700000000000000000000D4
:10082000F2B586B0040025690A466F2A01D108276F
:1008300007E0084620210143782901D00A2700E07B
:1008400010273C2603CC083C04AB03C3642A01D028
:10085000692A09D1002907DA04A803C80022002365
:10086000121A8B4104A80CC004A803C8002920D187
:1008700000281ED1206B00281BD1082F4ED1382014
:10088000205C00074AD53B26302046E000290ED5E3
:100890003821615C14220A40102A08D1616B626918
:1008A000891A226A891A081A002800DD206207B016
:1008B000F0BD0294009504A830C8761E0196200071
:1008C00029003A00FB1700F0B5FC3032D2B23A2AC8
:1008D00003DB6846007E51381218009882552000CC
:1008E00029003A00FB1700F0A5FC04000D0001D11F
:1008F000002C05D00298C068009989198842DCD381
:10090000029C009D082F09D13820205C000705D5E6
:10091000A85D302802D0761E3020A8553C20801BD0
:10092000A061A919E160216B8842AFDA081A206240
:10093000208F154901402187B9E7F8B50026134FEC
:1009400004000D00009216E001200099084007D035
:1009500032003B002000290000F0A1FC04000D0043
:100960000098401000903000390032003B0000F049
:1009700096FC06000F0000980028E5D12000290011
:10098000F4BD0000FFFFFF7FEFFF000000002440E8
:10099000F3B593B005AA03C802AB03C314A800784B
:1009A00020210143019161290BD01398006B00288D
:1009B00001D5062003E004D1672902D10120139953
:1009C0000863139803C84C006415641C13D10B030F
:1009D00011D003201399886114A8007861381A286F
:1009E00004D255497944FF31513116E053497944D5
:1009F000FF314B3111E04C006415641C13D10B0323
:100A000011D103201399886114A8007861381A283D
:100A10001BD34B497944FF31293103221398C06815
:100A200000F0DAFBC9E110AB03C391A6C0CE10A859
:100A300003C8394080256D03A9420BD200230093DF
:100A400010AB30CB604069400EE03E497944FF3145
:100A50000B39E2E7080D884C2418009410A803C84D
:100A6000874D0D4085492943139B03C30198612895
:100A700013D11398C06830210170811C139BD96079
:100A800014A90978612901D1782100E05821417029
:100A900013984069801C13994861139830C8264008
:100AA0002F4005D1002E03D100206B4698807BE1BA
:100AB0000198612800D0A9E01398006B002801D5A7
:100AC000212000E0401C0190019F7F1C02A803C868
:100AD0000022002300F0A5FC02D280200006454041
:100AE0000098001F009069460A7505A8461C002F53
:100AF00000DC68E120002900002280235B0300F075
:100B0000A9FC00D95FE169004A0D11001C31002ADF
:100B10001AD0002918DDB74A914206DB10052900DA
:100B2000802212061140014312E0554A2A4008056E
:100B3000104305000EE000BFB8520000B85200009C
:100B4000BC520000B452000029008022120611405D
:100B500000240D002000290000F096FC0290FF1FE9
:100B6000002F09DD00F0CAFC02000B002000290064
:100B700000F02BFD04000D00F01D0721029A04E097
:100B8000401E0F23134003701211002A01DD491E7D
:100B9000F6D5491E00D512E1401E00220270F8E78A
:100BA0000023040005AD2D1901E0401E6D1E641EDA
:100BB0002E789E42F9D00F2B04D14B1C1B5D5B1C81
:100BC000491C0B55002C04D505AA401C0099091D91
:100BD0000091431E11D4D41814A909782578303512
:100BE000EDB2392D02DD0E003A3EAD1925705B1EC7
:100BF000641E002BF2D514AB19701399096B0029F0
:100C000000D4CEE0411E139B1963CAE002A803C8BA
:100C10000022002300F005FC06D202A803C88022AF
:100C20001206514002AA03C200987349484373490F
:100C300000F058FD009007200099401A049005DD4F
:100C4000024602A803C8FFF778FE0AE042420020ED
:100C50006B49FFF772FE02000B0002A803C800F008
:100C60009BFD019A662A0DD1009A0A320BE000BF63
:100C7000FFFFFFFFFFFFFF7F02FCFFFF0000E03FE1
:100C8000FFFF0F800622139B1B6B9A18142A00DDAE
:100C9000142230236C46237505AB5C1C02E002A8CD
:100CA00003C8049A002A3CDD02AB03C3049202A8E5
:100CB00003C800F0FBFB0F90064608340425300003
:100CC0000A2100F0CBFD0F0030000A2100F0C6FD24
:100CD00006003037601E077030000A2100F0BEFDAC
:100CE0000F0030000A2100F0B9FD0600A41E3037C5
:100CF00027706D1EE3D1083404980838049000284A
:100D0000CDDD0F9800F0EAFB02000B0002A803C83B
:100D100000F05BFC00223B4B00F0C1FA02AA03C2C8
:100D2000C5E705A8401C211A05A8421C009802E04E
:100D3000491E401E521C1378302BF9D000900198A8
:100D4000662802D10098401C05E00198652801D171
:100D5000012000E00020139B1B6B1818814200DA71
:100D6000481E00281DD4884204DA115C352901DBB5
:100D7000392300E030230400511E0D1901E0401E0C
:100D80006D1E641E2E789E42F9D0392B02D1135D60
:100D90005B1C1355002C04D50A00401C0099491C0B
:100DA000009169468880009800B20090019B1BB2B8
:100DB00014A80178139800F027F815B0F0BDC61DEF
:100DC000002F00DD96E605A9481C331A05A8421C31
:100DD0000198834200DC1800002800D50DE79842F6
:100DE00000DBDDE64B1C1B5C072B00DCD8E60F2389
:100DF000D7E60000FF07000097750000A0860100FD
:100E00000000F03F84D79741F6B583B006000F008D
:100E10001C0000F091F96946406A00780870356B53
:100E2000002C03DC012400BFA1A004902020384343
:100E3000662803D10A9F3FB27F1C19E0672800D0C3
:100E400082E00A9800B20321C943884200DA7FE0B9
:100E5000A8427DDA0A9F3FB27F1C3820305C000731
:100E600002D4AC4200DA25003FB2ED1B00D50025CC
:100E7000B169F06840183FB2002F25DC491C3022D0
:100E80000270002D03DC3820305C000704D5684672
:100E90000078F2685054491CB1617842854200DA0A
:100EA0006F423FB278427062ED19A54200DA2C0021
:100EB00024B2F46122000499F068B369C01800F00C
:100EC0008BF9281BB062C2E03A00944217DA220084
:100ED000049900F081F9B0690019B061391B7162A1
:100EE000002D03DC3821715C090706D569460978B5
:100EF000F2681154F069401CF061B562A7E00499F2
:100F000000F06AF9B069C019E41B002D03DC382138
:100F1000715C090704D569460978F2681154401CD0
:100F2000B06124B2A54200DA2C0024B22200049859
:100F3000C119F068B369C01800F04EF9B069001922
:100F4000B061281B706282E0612F11D1702712E01E
:100F5000AC4204DA3821715C090700D425006D1E0B
:100F600000D50025672F01D1652704E0452702E061
:100F7000412F00D15027B069411CB161049A127809
:100F8000F3681A540498401C0490002D03DC3820A8
:100F9000305C000718D5481CB0616A461278F368C7
:100FA0005A54002D10DD641E24B2A54200DA2C0034
:100FB00024B222000499F368181800F00DF9B06902
:100FC0000019B061281B7062F068B16940180770A1
:100FD0000A9909B2002904D42B214170801C049085
:100FE00006E02D224270801C049048426946088524
:100FF00000246D460A9800B205E00A2100F072FB59
:101000002970641C6D1C00B20028F6DC012C09DC80
:1010100020203843652805D13020049908700498B1
:10102000401C0490002C28D13020049908700498AA
:10103000401C07E0641E6946095D30310170401CA8
:10104000002CF7DCF168B2698918401AF061382089
:10105000305C1421014010290DD17069B16940182C
:10106000716A4018F1694018B16A4018716B884282
:1010700001DA081A306205B0F0BD0498E0E7F8B56F
:1010800007000020002B12D00E0014001D00217854
:10109000B068B847B060002807D0F06A401CF06222
:1010A0000020641C6D1E02D0F1E70020C043F2BD99
:1010B00030000268531C0360117070471F4870476E
:1010C00030B45368D418042B0BDA002909D0057802
:1010D00025700578002D04D05B1C491E641C401C43
:1010E000F1E7536030BC704738B500290ED01D00C1
:1010F0001400FFF7E5FF616820006A6B904701224A
:10110000D243811A02D0491E02D004E0012000E03F
:101110000020C04332BD0021616032BD80B5DA6B72
:10112000904702BD80B5054BFFF7DEFF02BD80B5DD
:10113000024BFFF7F3FF02BD014870476400002037
:101140002C00002000BFC9B200E0401C02788A4297
:1011500002D0002AF9D100207047FEE780B50028B0
:1011600001D100BF07A006490B68002B03D0222243
:101170000021984701E000F08CFB222002BD000016
:1011800070670020636F6E73747261696E7420689B
:10119000616E646C65723A20626164206D65737380
:1011A00061676500010000E0491C0A78002AFBD154
:1011B000081A7047C9B201E0401C521E002A03D031
:1011C00003788B42F8D170470020704780B5FFF755
:1011D00075FF006C02BDFEE7124207D08B0706D0F8
:1011E0000B78491C0370401C521EF7D870478307C8
:1011F00006D00B78491C0370401C521EF9D1704771
:1012000070B4103A03D378C9103A78C0FBD25307B0
:1012100001D318C918C001D508C908C0D20704D322
:101220000B880380891C801C002A01D50B78037071
:1012300070BC7047124224D0994228D970B500255D
:101240001B4202D00C00002109E0002401264918AD
:101250006441944200D3A41A7641F8D331000126A8
:1012600001E0764109D2001864416D41A41A9D4104
:10127000F7D2A4185D41B619F5D3300022002B0037
:1012800070BD1B42D8D108B500F008FB08BD01D1E4
:101290009042D3D202000B00002100207047F0B52D
:1012A0000E005E400125ED072E40B446AE0ADF1861
:1012B0004C18F44208D2F7420ED2640D01D07F0DD3
:1012C00012D100206146F0BD05D1F74201D87F0D53
:1012D00005D10020C143F0BDFBD1640DF9D0002041
:1012E000C143490549088FE0E419C902DB022943DB
:1012F0002B43DB0A460DC00231438E4630B487B221
:1013000095B27D432E0CADB2140C7C43A419260C6F
:10131000240425439CB27C43A419190C7943270C5F
:10132000C919A4B20F043C43090C000C97B24743FF
:101330002E0CBE193543ADB2170C4743360CBF19FE
:10134000A6B2BF193E043543240C3E0C36199FB299
:101350004743BF19BCB23E0C89191F0C47437F1885
:101360003E043443390C704680B297B247432E0C8A
:10137000BE193543ADB2170C4743360CBF19A6B2A0
:10138000BF193E043543240C3E0C36199FB2474327
:10139000BF19BCB23E0C89191F0C47437F183E048D
:1013A0003443390C77463F0C90B278432E0C8019A9
:1013B0000604ADB22E43050CA0B22D18120C7A43D0
:1013C0005019020C80B2240CA4189AB27A43121954
:1013D00014042043120C89181B0C7B43C91830BC21
:1013E000EF0A394203D1B61940414941641E6F12D8
:1013F000BF0DE41B0BDBFF19BC4211DA24050027EB
:101400004208AE417841614166463143F0BD641CFB
:1014100005D1401C6141CF0201D34908F4E750E7F0
:101420005DE730B4012464054D00EC420BD85D004B
:10143000EC4208D80C001C4364000443144304D25B
:10144000994200D1904230BC7047FCD08B42FAD117
:101450008242F8E730B4012464054D00EC420BD819
:101460005D00EC4208D80C001C43640004431443A4
:1014700004D28B4200D1824230BC7047FCD09942EA
:10148000FAD19042F8E7FEE7F4464A1805D200F098
:101490000FF801D580174008604700F009F80121D6
:1014A000C907884200D90800404260474A1812D252
:1014B000400DC90208430121C9070843520D4021CC
:1014C0000901521A521C06D452421F3201D4D04094
:1014D0007047C017704700207047FEE701004222A6
:1014E0001201D21E004207D002D4521E0018FCD5B1
:1014F000C10A400512058918704700000100EED5A9
:101500004042F446FFF7EBFF0122D2071143604748
:101510008B4200D1824205D98446100062468C4637
:1015200019006346DF184C18640D7F0D3AD0661C15
:10153000760537D0E61B352E34DCDB022B43DB0A85
:101540000C0DC9022943C912202E0DDB1700203EC5
:1015500006D01F00F741F3405F400026012A774183
:10156000C01871410DD217E01700F741F240574003
:10157000F3415A40B340F3405A4000268018594185
:101580000AD3A21C52050FD0C207012F72411700C7
:101590004008CB0718434908641C24054208AF41A2
:1015A00070416141F0BC7047641C21050020F9E7DF
:1015B0006B4010E06B40ABE7F742F3D1E943F1E752
:1015C0002442EFD100200021ECE7F0B40125ED0723
:1015D0000F005F40EED40C00871A9C4105D2C01B5F
:1015E000A141D219634169406B40AE0ADF184C1823
:1015F000F442E1D2640D7F0DE2D0E61B362ED1DC41
:10160000DB022B43DB0AA4460C0DC9022943C90A9D
:10161000012E28DC04D1D6075208DF073A435B08C5
:10162000EF0A76429041994114D039423BD1B61924
:1016300040414941761C394204D1761C0018494189
:101640003942FAD0B9436746B74208D9A41B2405EA
:101650002143A7E70042EAD13642E8D1A2E7E40AF3
:10166000E10700209EE7202E0BDD203E1F00F34007
:10167000F7415F40012A002257417E429841914143
:101680000BE01700F741F2405740F3415A40B34096
:10169000F3405A407E42904199410A0303D2641EAE
:1016A000B619404149410027641E24054208AE4155
:1016B00078416141F0BC7047F446002804D44942A7
:1016C00000F013F8404260474042002905D45FD043
:1016D00000F00BF8404249426047494200F005F8EB
:1016E0004942604703460B43E6D40022030A8B427B
:1016F0000BD203098B4219D243088B422ED2411AD6
:1017000000D20146524110467047FF2209023FD0E5
:1017100012068B4205D3121209028B4201D3121218
:10172000090203098B4219D300E0090AC3098B425D
:1017300001D3CB01C01A524183098B4201D38B01E3
:10174000C01A524143098B4201D34B01C01A524186
:1017500003098B4201D30B01C01A5241C3088B42CB
:1017600001D3CB00C01A524183088B4201D38B00B6
:10177000C01A524143088B4201D34B00C01A524158
:10178000884200D3401A5241CFD2014610467047DA
:1017900008B500F085F808BDF0B40E005E400125E4
:1017A000ED072E40B446AE0ADF184C18F4423BD287
:1017B000F74241D2640D43D07F0D38D0E41BC902FB
:1017C000DB0229432B43CF0ADB0A0600B61A9F41EE
:1017D00004D2641EB6197F41B6185F416812800DAD
:1017E00024180018844222DAE80C0021B6197F413F
:1017F000B61A9F4102D2B6185F413F1C4041494191
:10180000F4D3241C21DD2405B6197F41B61A9F416B
:1018100005D33743C60737430026012F7041614186
:1018200066463143F0BC7047FCD1F74205D2002038
:10183000C14349054908F3E704D00020C143F1E75B
:101840007F0DFAD000206146ECE72442FAD1401C1B
:1018500061410F03F6D30020E2E7FEE7094214D00E
:1018600088420FD30122030C01D10004120400238B
:1018700000185B418B4200D35B1A5241F8D3190028
:101880001000704701000020704708B500F008F80C
:1018900008BD80B5012000F005F801BD7047FEE7E6
:1018A0007047FEE780B500BF00BF024A1100182054
:1018B000ABBEFBE726000200F8B5A0B004000F00A5
:1018C00016006846802100F077FC210012A000F08D
:1018D00021FE002417E0E010000F001900110001A4
:1018E000251A07D110A0694600F014FE8021684631
:1018F00000F062FC0AA13A5D68466B005B19C018F3
:1019000000F0E8FE641CB442E5DB694606A000F086
:1019100001FE21B0F0BD000025733A0D0A00000061
:10192000253032782000000025730D0A00000000E9
:101930007CB5C12930D116000500302000F0C2FF6F
:101940000400FF20207001206070A120A070211DE4
:10195000262000F0DFFF2622310020000830FFF7AC
:101960003BFC2E21200000F0DFFF6946088068461E
:1019700021002E3102780A7042784A702100280036
:10198000243000F05BFF0400FF2C07D1A12100BF31
:1019900020A000F0BFFD06E0FF2076BD002128005A
:1019A0002C3000F004FF200076BD0000F8B50600E2
:1019B00015000807000FA02707430B2000F082FF47
:1019C0000400FF20207001206070A770211D00F02E
:1019D000A1FF20000830297801700921200000F0C3
:1019E000A3FF6946088068462100093102780A7021
:1019F00042784A7021003000243000F01FFF0400BC
:101A0000FF2C04D1390000BF02A000F083FD2000AC
:101A1000F2BD00007265735B253032785D20746F13
:101A2000207175657565206572726F720D0A000010
:101A3000F0B591B00E003178FF2903D03BA000F043
:101A400069FD6CE00190B478210000BF3DA000F07A
:101A500061FD301D00F082FF010000BF3EA7802025
:101A6000C000814210D300BF40A000F053FD200011
:101A7000C038102846D300BF44A000F04BFD220020
:101A8000390000BF46A03AE07018083000AA921C46
:101A900003781370437853706846458808313000E6
:101AA00000F042FF854203D04FA000F033FDDEE797
:101AB000C12CDCD102A800BF50A11422FFF7A0FB6B
:101AC00007AC0025257002A8FFF76CFB607002A927
:101AD000A01C00F04FFFD44C256007AAC12101983B
:101AE000FFF726FF00281AD12068D0490860002897
:101AF00002D000BF46A200E04FA2390050A000F083
:101B000009FD0CE02200390057A000F003FD012080
:101B1000694608706A4621000198FFF747FF3000C8
:101B200000F0E3FE002011B0F0BD000072656376A6
:101B300020696E76616C6964207061636B65740DF9
:101B40000A00000072656376207479706520253084
:101B500032780D0A00000000726563765F6461747C
:101B6000615F6469737061746368000072656376B5
:101B700020696E76616C6964207061796C6F616454
:101B80005F6C656E3A25640D0A000000696E76612F
:101B90006C69642072657120747970650D0A0000AB
:101BA00025733A5B756E6B6E6F776E207479706516
:101BB0003D253032785D776F6E27742073656E64D3
:101BC0002072657320617320696E76616C69642090
:101BD0007061636B65742072656365697665642105
:101BE00021210D0A00000000636865636B73756D49
:101BF0002077726F6E670D0A000000004A69654425
:101C000069616E5465737442617474657279000021
:101C1000737563636573732C726561647920746F87
:101C200020656E747279207472616E737061726572
:101C30006E74206D6F6465006661696C0000000061
:101C400025733A726573706F6E736520736E20250D
:101C50007323232323232323232323232323232304
:101C6000232323230D0A000025733A636F6D6D61F2
:101C70006E642074797065202725303278272065BE
:101C80007863657074696F6E207265732073746118
:101C9000727420746F2073656E642E2E2E0D0A00F0
:101CA000F8B504000020009012A000F033FC00BF43
:101CB00018A700BF1DA6FA25AD0006E01EA039003A
:101CC00000F028FC009800F010FE2A006946200071
:101CD000283000F0C1FD00980028F6D0092231001C
:101CE00000F050FE0028E9D000992000FFF7A0FE88
:101CF000EBE70000756172745F726563765F717502
:101D00006575655F7461736B2073746172743E3EB8
:101D10003E0D0A00756172745F726563765F71755E
:101D20006575655F7461736B0000000041542B4E54
:101D3000414D453F0D00000025733A7265637620E2
:101D4000726571204154206E616D650D0A000000BE
:101D5000F0B589B007000020019005A8102100F01F
:101D60002BFA00BF32A000F0D5FB03E038A0310011
:101D700000F0D0FB002201A93800243000F06CFDF7
:101D80003AA601980028F1D00446201D00F0E6FD97
:101D900005000A352A0021463000FFF78DFDA678A0
:101DA00038A1627805A800F095FC05A800F015FEA2
:101DB000029000BF35A0310000F0ACFB01240020F0
:101DC0000390049500200090049B019A02A938001A
:101DD00000F0ADFC0500002D19DC00BF31A0210092
:101DE00000F098FBA12E10D12000641C04280CDA0E
:101DF000FA20400000F0C4FCE4E700210A4801603A
:101E000038002C3000F003FDB4E701200390019866
:101E100000F06BFD03980028ACD1A12EAAD1002DB3
:101E2000EBDD0121EAE700006C670020E46500209B
:101E3000756172745F73656E645F71756575655FFA
:101E40007461736B2073746172743E3E3E0D0A00C0
:101E500025733A20696E76616C6964206D657373D1
:101E60006167653A204E554C4C0D0A0075617274DD
:101E70005F73656E645F71756575655F7461736BC3
:101E800000000000302E25642E30000073656E6463
:101E9000206D7367207479706520272578270D0AD7
:101EA0000000000073656E64206661696C20636FDA
:101EB000756E742025640D0A00000000F0B5A74C73
:101EC000A544050001A88021C90000F075F900BFF4
:101ED00015A000F01FFB8026F60011E019A02200DB
:101EE00001A9FFF7E9FC200000F0ECFC070022004C
:101EF00001A9FFF771F939002800283000F09EFC95
:101F0000310001A800F058F9330001AA6946280001
:101F100000F016FC0400092CE0D200BF0DA0210047
:101F200000F0F8FAECE70000756172745F726563A7
:101F3000765F7461736B2073746172743E3E3E0D04
:101F40000A000000756172745F726563765F746188
:101F5000736B000072656376206D73672066726F25
:101F60006D20756172742E20696E76616C696420D3
:101F70006C656E3A25640D0A0000000038B5040057
:101F80000D0000F0C7FB020006D0290020A000F0E1
:101F9000C1FA002000F0DEFF03200090A0235B01C7
:101FA00022006F4923A000F0D4FB6063002803D116
:101FB00026A000F0AFFAFEE72BA000F0ABFA8025D8
:101FC000ED00032000902B002200664931A000F0B4
:101FD000C0FB2063002803D134A000F09BFAFEE789
:101FE00039A000F097FA042000902B0022005E49EF
:101FF00040A000F0AEFB002804D100BF41A000F0DB
:1020000089FAFEE748A000F085FA002032BD000002
:102010006F70656E2075617274206E756D62657289
:10202000202564206661696C207265742025642E09
:102030000D0A0000556172745F726563765F717599
:102040006575655F7461736B0000000063726561A4
:1020500074652072656376207468726561642066B9
:1020600061696C2E0D0A0000556172745F726563C0
:10207000765F71756575655F7461736B20637265FA
:10208000617465207375636365737366756C202175
:102090000D0A0000556172745F73656E645F71753F
:1020A0006575655F7461736B000000006372656144
:1020B00074652073656E642074687265616420665F
:1020C00061696C2E0D0A0000556172745F73656E54
:1020D000645F71756575655F7461736B20637265AC
:1020E000617465207375636365737366756C202115
:1020F0000D0A0000556172745F726563765F7461EA
:10210000736B0000637265617465205561727420A1
:1021100072656376205461736B206661696C6564D7
:10212000212E0D0A00000000556172742072656353
:1021300076207461736B20637265617465207375BA
:10214000636365737366756C20210D0A00000000DF
:1021500080B5064800F0DEF901BD0000FCFBFFFF82
:10216000A11C0008511D0008BD1E00082C5D0008C0
:10217000094205D0830705D00270401C491EF9D1E1
:1021800070470000130030B414001500103902D35A
:1021900010393CC0FCD2490700D30CC000D504C0A4
:1021A000890002D30280801C002900D5027030BC57
:1021B000704700000022DBE70022E3E70068AA493D
:1021C000884200D07047F8B517A74E0DB34C0025D4
:1021D000E068002810D02079411C21711F280CDBF9
:1021E000257165703100AE48FFF7E6FFE560390004
:1021F00014A000F08FF900E025712069002811D0AB
:102200006079411C61711F280DDB6571E57031003B
:10221000BB48FFF7D1FF2561390000BF10A000F0D7
:1022200079F9F1BD6571F1BD48414C5F54494D5F8D
:1022300049435F4361707475726543616C6C6261A0
:10224000636B000025733A756172743320727820D5
:1022500074696D656F7574202121210D0A000000DD
:1022600025733A75617274342873696E676C652DD5
:1022700077697265292072782074696D656F75744D
:10228000202121210D0A0000F8B5032400900F0041
:1022900016001D002B0032003900009801F07CF977
:1022A000010003D021004C1E0906F3D1F2BD00004D
:1022B000F1B582B0AD480168029802688027BF007E
:1022C0000120764D0024AA4B9A424AD1744E00292F
:1022D0000AD16C7039003000FFF76EFFADA100BF6E
:1022E000B2A000F017F939E06A782978B154521C8D
:1022F0006A70D2B2012A0DD13078AA281DD06C7034
:1023000039003000FFF758FF327800BFA1A100BFAD
:10231000B0A00EE0022A10D1717805290CD06C70A3
:1023200039003000FFF748FF727800BF99A100BF65
:10233000B6A000F0EFF811E0E860B018401E007899
:10234000A5280BD1EC6096235B003100894800F092
:102350005BF86C7039003000FFF72EFF0122290076
:1023600044E0854B9A4245D1EA78654EAB78B35448
:10237000521CEA70D2B2012A0CD13078AA281CD0A3
:10238000EC7039003000FFF717FF327881A100BFF1
:1023900090A00EE0022A10D17378052B0CD0EC70BF
:1023A00039003000FFF708FF727800BF79A100BF45
:1023B00096A000F0AFF817E02861B018401E007832
:1023C000A52811D12C61002903D1A86801F083FC54
:1023D0000AE096235B0031006848FFF755FFEC7078
:1023E00039003000FFF7E8FE0122A91C029801F035
:1023F00033F9F7BD96235B000F22290014310298B0
:1024000001F0CAF8F7BD0000FEB50F0014001E0071
:102410000021C9430191002C01DC0020FEBD009089
:1024200005685548854202D1009801F0E9F933006A
:102430003900A2B20098FFF727FF002801D10194CC
:1024400005E000BF7FA100BF83A000F063F84A4809
:10245000854207D1009801F0E9F901224849009826
:1024600001F0FAF80198FEBD00100040F8B50D002B
:102470000A4C0021C943A06801F0F9FBE678414FFE
:10248000320039002800FEF7A7FE0020E07080210E
:1024900089003800FFF790FE3000F2BD08000020F0
:1024A000C4600020F8B500248025AD006DA7364E2D
:1024B000032802D0042807D01AE07470290033489A
:1024C000FFF77AFE2D4C18E03000083000F068F974
:1024D000002806D0390000BF66A000F01BF80020DD
:1024E000F2BDF47029000648FFF766FE214C04E0B7
:1024F0000200390068A000F00DF82000F2BD0000D5
:10250000C462002080B500BF6AA100BF6EA000F0C9
:1025100001F801BD0EB430B5A0B005001C4CEFF3BE
:102520000580002803D072B606E001F09BFB200076
:1025300001F098F92128F8D023AA2900684601F073
:10254000F3FB012808DB6846FEF72CFE642382B209
:102550006946200001F020F8EFF30580002800D044
:1025600062B620B0029830BC04B00047E465002099
:102570000048004034650020004C0040C464002046
:102580000A000020C462002008000020C46000206F
:102590009466002048414C5F554152545F52784345
:1025A000706C7443616C6C6261636B0025733A7587
:1025B0006172742073696E676C652077697265203B
:1025C0006973206E6F742072656164792121210D19
:1025D0000A00000025733A726563762074686520EE
:1025E0006261642031206279746520272530327859
:1025F00027206F66204C4C4320486561642066723A
:102600006F6D2075617274330000000025733A729B
:102610006563762074686520626164203220627987
:10262000746520272530327827206F66204C4C4374
:1026300020486561642066726F6D20756172743325
:10264000000000006A7A5F756172745F7772697466
:10265000655F65780000000025733A6572726F72DD
:102660000D0A00006A7A5F756172745F696E697441
:102670005F65780025733A637265617465207573D0
:10268000617274342073656D6170686F7265206665
:1026900061696C2E0D0A000025733A756E6B6E6FC2
:1026A000776E207573617274206E756D3D25640DB3
:1026B0000A0000006A7A5F756172745F636C6F7301
:1026C000655F6578000000002573203E3E3E3E3E7B
:1026D0000D0A00000CB418B583B004000A0006A867
:1026E000029001940020009002AB01A908487844B0
:1026F0001E30FDF7E5FC0021019A1170002801D47D
:102700000198001B04B0019910BC03B0084700BF3A
:10271000A3E9FFFF10B50400002000F0C4FA206018
:10272000002802D10020C04310BD002010BD10B50C
:102730000C0011001A002368006800F07DF910BD3C
:1027400010B50C0011001A002300006800F000FA18
:1027500010BD3EB50C001900069B02AD019500931B
:1027600013008AB20100200000F002FB012801D111
:1027700002983EBD00203EBD80B500F02BFC01BD9F
:102780001CB501240A2803D90A21FFF767F80400C1
:1027900000F09AFC00902100684600F0ADFB13BDEC
:1027A00038B50500FF240322002101203EE0F8B5E2
:1027B00006000D0000F088FC07000024E443002D13
:1027C00015D00023009328000A21FFF747F80200E4
:1027D00000230021306801F0F3FB012805D100F04F
:1027E00073FCC01B0A214843F2BD2000F2BD002348
:1027F00022000021306801F0E3FB0128F7D100F04E
:1028000063FCC01B0A21484300D10120F2BD80B502
:10281000FFE7002300220021006801F001FB01BD59
:1028200038B505000800FF240022042101F0D0FA89
:102830002860002800D00024200032BD32B50024DA
:10284000E4430500002322006946286801F0E8FA05
:102850000128F7D1002032BDFEB504000E0015009E
:1028600000F032FC0190002E00D16E4628000027B7
:10287000FF43002815D00A21FEF7F0FF02000023D5
:102880003100206801F09CFB012806D100F01CFCFF
:102890000199401A0A214843FEBD002030603800EB
:1028A000FEBD00233A003100206801F089FB0128B9
:1028B000F7D100F009FC0199401A0A21484300D1E0
:1028C0000120FEBD38B5050001F0DCFC040005D098
:1028D000002D08D02900FFF76DFC04E005A100BF22
:1028E00008A0FFF717FE200032BD80B501F048FDBB
:1028F00001BD00006A645F6F6D5F6D616C6C6F633A
:102900000000000025733A6661696C2121210D0ADF
:102910000000000084460870000A4870000A8870B1
:10292000000AC8706046704718B502000B0000210D
:102930000EE010780002484081B2521C08204C0082
:10294000090402D50449614000E02100401EF6D18F
:102950005B1EEED588B212BD21100000C3788278CC
:10296000417800781B021A430902120408431043FD
:102970007047FEE7002300E05B1CCA5C002AC254DB
:10298000FAD1704710B404E0002C0ED0401C491C52
:10299000521E002A09D00B7804789C42F4D002D24F
:1029A0000020C04302E0012000E0002010BC70477E
:1029B00070B505000024422605E00420FFF7E0FE84
:1029C000042E08D9361F687D002804D1687B297B36
:1029D0008842F2D10124200070BD78B50021002288
:1029E000012300240091055D2E2D06D0002D04D07A
:1029F0000A2672435219303A08E06E46F2545B1CC4
:102A0000DBB2042B05DA0022002D02D0641CE4B2F4
:102A1000E9E7009872BD10B50A00002103000173B8
:102A200003E0521E1C7809195B1C012AF9DA0173B4
:102A3000C8B210BD00000000F7B5C4B01F001546B5
:102A4000032002904498007B401C44990873C0B254
:102A5000C1434498417304AE45980390469C0020BE
:102A6000694608700298002837D00298401E0290EC
:102A700033E0FE21014014E0F02001904498007BF7
:102A80007072684600786946421C0A700121B27A69
:102A90000123134040001843B072019AA41AE8D1F0
:102AA0000143B172019A039930000D30FEF794FB97
:102AB0000198F072F17A0D3104A8FFF7ACFFF27AB9
:102AC0000D3204A944980069449B5B6A984705004D
:102AD0003BD403980199401803904498407D002C02
:102AE0001BDD002819D100210022449883181B7A8D
:102AF000B5186B70521C042AF8D34490019701A8B2
:102B0000405C72185071491C0429F8D3019F0220BF
:102B10003070F02CB0DC0194B0E7002815D1449857
:102B2000007D002811D14498FFF742FF00280CD106
:102B30000298002890D10025ED436F480168491C98
:102B4000016000BF73A0FFF7E5FC280047B0F0BDAF
:102B5000FFB5FFB084B004000026002700252069DF
:102B600001F05DFC019404AC03E000BF74A0FFF72A
:102B7000D1FC0198407D002800D092E0FD22520057
:102B800004A901980069019B1B6A98470600002E62
:102B9000EFDD092E07D100BF66A1092204A8FFF7C7
:102BA000F1FE002817D0217B0091310004A8FFF727
:102BB00032FF0099C9B28142D7D12078012802D0D2
:102BC00002280FD0D5E70198007B617A8142D0D1ED
:102BD00001994873CDE78498092204A9FEF7FCFA0D
:102BE00009205BE0A07A400802D10025002702E01E
:102BF000F9B28842BDD1E27AA818859988420CDAE8
:102C000021000D3184984019FEF7E6FAE07A2D187C
:102C1000A07AC00708D47F1CABE700BF4EA0FFF727
:102C200079FC0020C04339E0019E0021002004AA65
:102C300003AC531C1B5C2354401C0428F9D3039A97
:102C400086980260307D002827D104AA02AC531C6C
:102C50001B5C2354401C0428F9D302980023571C02
:102C6000F418247AFC545B1C042BF9D30023009045
:102C70006846C05CD41860715B1C042BF8D304ACAC
:102C800001202070E1720D2104A8FFF7C4FEE27A52
:102C90000D3204A93069736A984728007FB008B0E4
:102CA000F0BD3000FAE770B505000E003820FFF7E0
:102CB00009FE04001BD03821FFF77CFA00202075A4
:102CC000E5610E4820620E4860620E48A0620E4820
:102CD000E0620E4820630E4860633100E069226BB9
:102CE00090472061002804D12000FFF7FEFD00205E
:102CF00070BD200070BD00006867002029440008F6
:102D0000A1450008D7450008CD450008E145000869
:102D1000474600083E3E3E3E3E3E3E3E3E3E3E3E36
:102D20003E3E73656E642074696D656F75743A25F7
:102D3000640D0A0041542B4E414D453F0D000000EB
:102D4000746C6320646174612073756D20657272A8
:102D50006F720D0A00000000627566666572206978
:102D600073206D696E206572726F720D0A0000002B
:102D7000F6B585B007000C001D00900001F082FA46
:102D800006001ED0582001F07DFA0490002815D0CE
:102D90000D9A0C9B21003800049C266300240394A8
:102DA000049C0294019200932B006A46128B00F05F
:102DB0000DF8049800F04AF8012004E0300001F01A
:102DC000DFFA0020C04307B0F0BD0000F9B581B0C4
:102DD0000A9C206B920087183F1F072087437807C3
:102DE000002500913426009909180A7823189A556D
:102DF0000978002902D0401C1428F4D3089E4721EA
:102E00006554042E00D90426E662A66420004830EA
:102E10004560201D01F09DFC2000183001F099FC58
:102E200024610520801BA061646220004830856019
:102E3000200048300573029A0199380001F0C4FC63
:102E400020600998002800D00460F7BDF8B507009D
:102E500001F0EEFC3E4CE06E401CE0665B4D606EA7
:102E6000002825D16766E06E01282AD100261420AB
:102E70007043201801F05EFC761C052EF7D320006D
:102E80008430009001F056FC26009836300001F0A6
:102E900051FC280001F04EFC2800143001F04AFCDF
:102EA0002800303001F046FC0098A066AE6208E0D1
:102EB000606F002805D1F86A616EC96A884200D344
:102EC0006766E86C401CE864F86A216F814200D2B2
:102ED0002067391D14225043201801F03DFC01F0F9
:102EE000B3FC606F002806D0606EC06AF96A884241
:102EF00001D201F097FCF1BD10B5002801D172B6E6
:102F0000FEE7002901D172B6FEE7314A1368002BB3
:102F100001D072B6FEE713685B1C13602B4A526C3B
:102F200003685C189A4203D29C4203D3046008E011
:102F30009C4201D3A242F9D204600021A01A00F001
:102F40009BFA00F071F8002801D101F06BFC10BD74
:102F5000E865002070B5060001F06AFC5C4C002EAC
:102F600000D1666E301D01F01DFCB06A002803D050
:102F70003000183001F016FC144D311D280030309F
:102F800001F0EAFB01F060FC606F002805D001F061
:102F90004FFC00F0E8F901F057FC606E864214D156
:102FA000606F002808D080202058002801D072B619
:102FB000FEE701F037FC70BD286BE16E884202D15C
:102FC0000020606670BD00F0E5F870BD0467002069
:102FD000686600201CB56E4C200054300190002023
:102FE00000900023802200BF0AA18C48FFF7C0FE9A
:102FF0000021C943012808D172B6216534494867C8
:103000000020606401F0F8FB13BD8842FCD172B669
:10301000FEE7000049444C45000000009648016866
:10302000491C016070470000F8B500250095284F45
:103030003C0080342068002801D172B6FEE701F020
:10304000F7FB2068401E20602068002838D1F86E09
:103050000028714E1AD133E0F068C5682800183096
:1030600001F0A0FB281D01F09DFBE86A396F814249
:1030700000D23867291D14225043381801F06CFB28
:10308000E86A796EC96A884200D3BC670124306857
:103090000028E1D1002D01D000F065F9B56C002DBC
:1030A00008D000F017F8002800D0BC676D1EF8D1DA
:1030B0000020B064B86F002802D0009401F0B2FB89
:1030C00001F0C2FB0098F2BD5348406C704700000D
:1030D000E8650020F8B50024874F80203858002884
:1030E0004D484BD1466C761C46640FD1B86E0068D3
:1030F000002801D072B6FEE7B86E47498A6ABA6600
:103100008862F86F401CF86700F02DF94248006DA6
:10311000864227D31AE0281D01F044FBA86A002844
:1031200003D02800183001F03DFBE86A396F814276
:1031300000D23867291D14225043381801F00CFBC7
:10314000E86A796EC96A884200D30124B86E0068C3
:10315000002810D0B86EC068C56868688642DAD2A8
:103160002D490865786EC06A1421484338580228F2
:1031700007D3012405E00020C043F1E7816C491C1E
:103180008164B86F002800D001242000F2BD000047
:103190000467002010B5584C80202058002802D029
:1031A0000120A06710BDA067606E006B616E0968AA
:1031B000884204D3616E3431606EFEF7C9FF206F20
:1031C00000E0401E1421414361180A68002A03D11F
:1031D0000028F6D172B6FEE74A6852684A600B00D2
:1031E00008339A4201D152684A604968C9686166E9
:1031F000206710BD10B50C00002801D172B6FEE7A3
:103200003D49496E183101F0B3FAFFE70121200072
:1032100000F032F910BD000004670020FD32000804
:1032200038B5C068C568002D01D172B6FEE7280028
:10323000183001F0B7FA304C8020205800280CD10B
:10324000281D01F0AFFAE86A216F814200D22067A1
:10325000291D14225043201802E029001831834808
:1032600001F07AFA606EC06AE96A884202D20120EF
:10327000A06732BD002032BD68660020002801D161
:1032800072B6FEE71C49C96F01607949496C41601B
:1032900070470000F8B50500002D01D172B6FEE7B9
:1032A0000091002901D172B6FEE701F0C1FA6F4822
:1032B000416C0098026800240020C043824213D071
:1032C0006B680D4EF66F2F68BE4201D099420AD24C
:1032D000CE1A964207D2501AC018009908602800EA
:1032E000FFF7CCFF00E0012401F0AEFA2000F2BDB0
:1032F0000120014988677047E8650020F8B55D4CFA
:10330000270080375A4D1CE03868401C38606869D7
:10331000461EB641F60FFFF787FE002E11D101F0D1
:1033200087FA286AC668301D01F03CFAE06E401E3C
:10333000E066E86A401EE86201F086FA300000F0BC
:1033400009F8E86A0028DFD120680128F9D901F0DE
:1033500069FAF6E710B50400206B01F011F82000BF
:1033600001F00EF810BD414842498A6E1268002AE9
:1033700002D10021C94303E0896EC968C968496860
:10338000016570473B48416F002901D1012070471A
:1033900080214058002801D102207047002070474A
:1033A00038B5050028D0334CE86A616EC96A884296
:1033B00022D2A869002804D40520616EC96A401A87
:1033C000A8616869E96A142251436118884210D1E2
:1033D000281D01F0E7F9606EC06AE862216F814242
:1033E00000D22067291D14225043201801F0B4F99F
:1033F00031BD606EC06AE86231BD000038B50500BD
:103400000020002D26D01B4C616E8D4201D072B67B
:10341000FEE7E96C002901D172B6FEE7491EE964B6
:10342000EA6AAB6C9A4215D0002913D1281D01F02D
:10343000B9F9A86CE8620521081AA861E86A216F49
:10344000814200D22067291D14225043201801F028
:1034500083F9012032BD0748416E002903D0416E37
:10346000CA6C521CCA64406E70470000046700209A
:1034700004670020E8650020F8B507000E00164C30
:10348000606C0090134D686E001D01F08BF90020F8
:10349000C043874208D1002E06D0686E011D20006F
:1034A000303001F059F9F1BD0098C619686E4660D8
:1034B00000988642686E04D2011DA06A01F058F996
:1034C000F1BD011DA86E01F053F9206D864200D2B6
:1034D0002665F1BDE86500200467002038B50400CA
:1034E00014D0250068356878002803D128702000A2
:1034F00001F010FA242068702068016801229143CD
:103500000160200000F0B4F9012801D1012032BD92
:10351000606A002802D0200000F042FA206841686A
:103520004C4A0A40426020688168082291438160C9
:1035300029E038B5040014D02500683568780028E3
:1035400003D12870200001F0E5F92420687020687C
:103550000168012291430160200000F089F90128EF
:1035600001D1012032BD606A002802D0200000F0A5
:1035700017FA20684168374A0A404260206881682B
:1035800008220A4382602068016801220A4302601F
:10359000200000F069FA32BDFEB505002F0050375B
:1035A000787E202848D10E000BD0140009D0A868DE
:1035B00080214901884206D12869002803D1F007FB
:1035C00001D50120FEBD387E012835D001930120B0
:1035D00038760020F8612120787601F059FA3C8095
:1035E0007C803400060005E02088C005C00D2968F5
:1035F0000885A41C7888002820D07888401E788010
:1036000001980090330000228021280000F035FA54
:1036100000281DD1A86880214901884202D128696B
:103620000028E1D0207829680885641CE2E7202082
:10363000787600203876FEBD0220FEBD2800019974
:10364000330000910022402100F017FA0028EED04C
:103650000320FEBDFFF7FFFF70B5030058339C7CCD
:10366000202C41D100290BD0140009D08568802678
:103670007601B54206D10469002C03D1CC0701D5EF
:10368000012070BD1C7C012C2ED001241C744165CE
:103690001A805A80FF21B54204D10269002A11D153
:1036A00012490FE07F22002D03D10569002D06D1BC
:1036B00008E021078D4206D10169002901D19A80D5
:1036C00001E03F2199800021596122229A741974E6
:1036D00001688A6814438C60006801689022520077
:1036E0000A430260002070BD022070BDFF0100008F
:1036F00070B504002368D869196805072D0F07D134
:10370000820605D58A0603D5200000F06CFA70BD4C
:103710009A68002D63D001252A4203D190267600B5
:103720000E405CD0C60705D5CE0503D51D62E36EFD
:103730001D43E56604230225860706D5D60704D572
:1037400026683562E66E1E43E666460706D5D6074E
:1037500004D526683362E36E1D43E566082503073A
:1037600008D58B0601D4D20704D522681562E26E13
:103770002A43E266E26E002A40D0800604D588061D
:1037800002D5200000F02FFA4026E06E054003D15C
:103790002068806830401CD0200000F0A3F9206829
:1037A00081680E4011D08168402291438160606E33
:1037B00000280AD079494163606E01F06FF9002852
:1037C0001CD0606E416B884770BD200001F08AF903
:1037D00070BD200001F086F90020E06670BD020691
:1037E00005D50A0603D5200000F0BCF970BD4006DF
:1037F00004D5480602D5200000F0E8F970BD0000AD
:1038000010B56821415C012901D1022010BD0100E1
:10381000683101220A7024224A70026813680C245D
:10382000A343136000680268082314E010B5682100
:10383000415C012901D1022010BD01006831012243
:103840000A7024224A70026813680C24A343136090
:10385000006802680423134303602020487000209E
:10386000087010BD6921415C6A22805C0843704782
:10387000F8B5040010220020002526683168984F12
:103880000F40A168394327690F4361693943E769EC
:103890000F43376077689A493940E7680F4377608C
:1038A000B76898493940A7690F43216A3943B16025
:1038B00095498E420FD1954909688907890F19D01A
:1038C000022906D003D3032915D1022213E00422D2
:1038D00011E008220FE08E498E420BD08D498E42B6
:1038E00008D08D498E4205D08C498E4202D08C4939
:1038F0008E4200D1002280231B02E7699F4225D11E
:10390000002A06D0022A07D0042A09D0082A0DD09E
:1039100013E001F091FB05E061684808814A08E086
:1039200001F060FB616840004A0802E061684808F5
:103930005A008018FDF792FF00E001257A49014006
:103940000004400C4007400F084318E0002A06D04E
:10395000022A07D0042A0AD0082A13D01AE001F05C
:103960006BFB06E061684808704A80180DE001F0C2
:1039700039FB61684A088018FDF770FF80B2216842
:10398000C86008E061684808C018FDF767FF80B2AA
:10399000F06000E001252800F2BD0000513B000866
:1039A0002421415CC90706D501684A68604B134071
:1039B000826A1A434A602421415C890706D501685E
:1039C0004A685C4B1340C26A1A434A602421415C36
:1039D000490706D501684A68574B1340026B1A43E2
:1039E0004A602421415C090706D501684A68534BA7
:1039F0001340426B1A434A602421415CC90606D534
:103A000001688A684E4B1340826B1A438A602421F6
:103A1000415C890606D501688A684A4B1340C26B2F
:103A20001A438A602421415C490611D501684A681D
:103A3000454B1340026C1A434A60026C80235B03BF
:103A40009A4205D14A68414B1340426C1A434A607E
:103A50002421415C090606D501684A687E4B134063
:103A6000806C184348607047683000214160202214
:103A700042708270017000207047FEB5089E00926F
:103A8000002405000F0001932868C0693840B8423F
:103A900001D1012000E00020009988421DD10020C2
:103AA000C0438642F0D0002E05D000F0F1FF01990E
:103AB000401A8642E8D228680168684A0A400260D3
:103AC00028688168012291438160280068302021A4
:103AD0004170817004700320FEBD0020FEBD000017
:103AE000F369FFEF01680A685D4B13400B600168E2
:103AF0008A6801239A438A6020216A228154704790
:103B0000FFCFFFFFFFF4FFFF0038014030100240FD
:103B10000044004000480040004C0040005000407D
:103B2000001401400024F400F0FF000000127A00AD
:103B3000FFFFFDFFFFFFFEFFFFFFFBFFFF7FFFFF1C
:103B4000FFEFFFFFFFDFFFFFFFFFEFFFFFFF9FFF25
:103B500080B5406A0100523100220A810A8000F0DB
:103B6000C1FF01BD01005231CA7D212A2CD1522250
:103B7000825A002A0AD101680A6880239A430A609F
:103B80000068016840220A4302601BE082688023CB
:103B90005B019A420CD10269002A09D1C26C1288D9
:103BA000D205D20D03681A85C26C921CC26405E06E
:103BB000C26C531CC364127803681A855222805A5F
:103BC000401E0880002070470220704780B50168C1
:103BD0000A6840239A430A6020216922815401F037
:103BE0005DFA002002BD38B501005A314A880368E9
:103BF0000C7C222C2AD19B8C846880256D01AC42E0
:103C000009D10469002C06D11A40436D1A80426D17
:103C1000921C426504E0446D651C45651A402270A3
:103C20005A22825A521E0A8012040DD10268136869
:103C30000B4C1C401460026893680124A3439360FA
:103C400020220A74FEF734FB002032BD9869082157
:103C500001439961022032BDFFFFF7FF5FFEFFFFC6
:103C6000DFFEFFFF80B500F0DDFD002002BD1CB5CA
:103C70000400080000220092002C01D1802016BD13
:103C80000021C943884201D10A0007E0002805D07D
:103C90000A21FDF7E3FD020000D10122EFF30580C8
:103CA00000280FD06A460021200000F027FA0128E2
:103CB0000FD10098002803D08020400515490860E6
:103CC000002016BD00230021200000F079F9012812
:103CD000F6D0FF2016BD1CB500240094EFF305813B
:103CE00000290CD0694600F02FF9012810D1009866
:103CF00000280BD0802040050649086006E000231C
:103D0000002200F08DF8012800D0FF24200016BD0D
:103D1000FF2016BD04ED00E080B5FFF733FB01285E
:103D200001D000F09DFD01BD16B582B004000194E4
:103D30000020009003AB0A0001A90748784418301E
:103D4000FCF7BEF90021019A1170002801D40198F6
:103D5000001B04B010BD00BF5BD3FFFF38B50500EA
:103D60000C00002D01D172B6FEE700F061FD28685D
:103D7000E96B2A6C5143401868600020A8632868EA
:103D8000A8602868E96B491E2A6C51434018E86016
:103D9000280044300021C94301704170002C0BD130
:103DA0002869002810D028001030FFF739FA0028C1
:103DB0000AD000F037FD07E02800103000F0BAFC10
:103DC0002800243000F0B6FC00F03EFD012032BD9A
:103DD000F8B504001600002C01D172B6FEE70F0002
:103DE00001D1482001E07843483000F04BFA05004B
:103DF00007D0330000952A0048323900200000F037
:103E000002F82800F2BD80B503000298002900D115
:103E100002000260C36301640121FFF79FFF01BD3F
:103E2000F6B583B004000027002C01D172B6FEE77E
:103E30000291002902D1206C00280ED11E00022E12
:103E400002D1E06B01280AD1FFF79CFA002816D1B5
:103E50000498002813D072B6FEE772B6FEE772B679
:103E6000FEE7049920001030FFF7C4F9200000F0AD
:103E7000CAF9FFF7D9F8002801D100F0D3FC00F00F
:103E8000D7FCA06BE16B884245D3022E43D0049847
:103E900000283BD00125002F03D16846FFF7EEF93B
:103EA000012700F0D1FCFFF7B9F800F0C1FC2000B9
:103EB00044300021C9434422A2568A4201D1002243
:103EC000027042578A4201D10021417000F0BCFCCF
:103ED00004A96846FFF7DEF9002829D100F0A8FC04
:103EE000A06BE16B884214D100F0AEFC002DB8D17C
:103EF000200000F088F9FFF797F8C0E7002801D00C
:103F000000F090FC00F0A0FC012017E000F09CFC09
:103F100013E00025E8E732000299200000F028F9BC
:103F2000616A0029EAD020002430FFF779F9E5E73B
:103F3000200000F068F9FFF777F8002005B0F0BD29
:103F400001F0E6F83000FEBDF8B504000F00002CCB
:103F500001D172B6FEE7206C002801D072B6FEE7F0
:103F60002068002802D1606800281CD101F0CCF83C
:103F70000500A06BE16B88421BD245216156401CB5
:103F8000A06301260020C04381420ED1606A002850
:103F900010D020002430FFF743F900280AD0002F6A
:103FA00008D03E6006E072B6FEE7491C4520215469
:103FB00000E00026280001F0ABF83000F2BD000060
:103FC000F6B583B004001F0000260025002C01D1A7
:103FD00072B6FEE70291002902D1206C002808D1B8
:103FE000FFF7D0F900280BD10498002808D072B64A
:103FF000FEE772B6FEE7200000F005F9FFF714F8BF
:1040000000F016FCA06B002805D10498002828D1E8
:1040100000F01AFC6FE00500E6680299200000F04D
:10402000DFF8002F0DD16D1EA5632068002802D196
:10403000FFF711FA6060206900280ED020001030D0
:1040400005E0E660606A002807D020002430FFF712
:10405000E7F8002801D000F0E5FB00F0F5FB0120B7
:104060004AE0002D03D16846FFF708F9012500F06A
:10407000EBFBFEF7D3FF00F0DBFB20004430002118
:10408000C9434422A2568A4200D1067001228256B8
:104090008A4200D1467000F0D7FB04A96846FFF7BA
:1040A000F9F800281DD1200000F0E2F80028A2D085
:1040B0002068002806D100F0BBFB6068FFF770F9AC
:1040C00000F0C2FB049920002430FFF793F8200091
:1040D00000F099F8FEF7A8FF002891D100F0A2FBAC
:1040E0008EE7200000F08FF8FEF79EFF200000F022
:1040F000BFF8002884D0002005B0F0BDF7B504005B
:10410000002C01D172B6FEE70091002902D1206C8B
:10411000002807D100F0F8FF0700A66B002E03D19E
:1041200038000DE772B6FEE74420255600992000BE
:1041300000F056F8761EA66301260020C043854293
:104140000DD120690028EBD020001030FFF768F86F
:104150000028E5D002980028E2D00660E0E76D1C58
:1041600044202554DCE7000000F06EFB200010BD69
:10417000F8B50400100000260027A56B226C002A69
:1041800008D12068002827D16068FFF737F90700B9
:10419000666021E006000CD1A068FDF71DF8A0685C
:1041A000216C4018A0606168884215D32068A06027
:1041B00012E0E068FDF710F8216C4842E168091848
:1041C000E1602268914202D261680818E060022E24
:1041D00002D1002D00D06D1E6D1CA5633800F2BD0C
:1041E0000B00026C002A00D1704710B5C168891815
:1041F000C1604468A14201D30168C160C168180070
:10420000FCF7EAFF10BDF8B5040000F011FB270031
:10421000443701203D566DB2012D19DB606A00283C
:1042200016D020002430FEF7FBFF002801D0FFF756
:104230005FF86D1EEFE72069002815D020001030D0
:10424000FEF7EEFF002801D0FFF752F8761E08E0D7
:104250000020C5437D7000F0F7FA00F0E9FA442031
:10426000265676B2012EE6DA3D7000F0EDFAF1BD89
:1042700010B5040000F0DCFAA06B441EA441E40F6A
:1042800072E70000FEB50700002401940294FEF7D7
:10429000C5FE07255B4EB06800281FD1C021C901AB
:1042A000300018300090024630001830284204D008
:1042B000D21DAA43881A00994118326074605018C0
:1042C0000838A843B06044600460811A51601060EF
:1042D00050683061F060802000067061706938407D
:1042E00031D1002F2FD008372F4207D038000830A7
:1042F0002F40C71B2F4201D072B6FEE7002F22D0FD
:10430000F068B8421FD3320031684868B84223D2FF
:104310000868002820D00A000100F6E73A1D115075
:104320007860009800F04AF87868F168091AF1603E
:104330003269914200D231617169014379603C6018
:10434000019805400295FEF76FFE0298002801D003
:1043500072B6FEE70198FEBD38000F00B1688F42CB
:10436000F1D0116808310191396811607968091A32
:104370001129D9D33A1800922A42CFD072B6FEE75B
:1043800038B5050019D0083D68681E4C61690842BF
:1043900001D172B6FEE72A68002A01D072B6FEE7A4
:1043A00088436860FEF73AFEE06869684018E0609C
:1043B000280000F003F8FEF737FE31BD30B5114A92
:1043C000110000E021000C688442FBD34B68CC183C
:1043D000844203D1406818184860080044680B689C
:1043E00005199D4208D19268934204D05A68A218D8
:1043F00042601B6800E013000360814200D0086047
:1044000030BD0000AC00002080B50023FEF72EF880
:1044100002BD80B596235B00FDF7F6FF02BD0021CB
:104420004182818170470000F0B587B006000D0021
:104430001400B76870680190B089002808D1802204
:10444000920039007069FFF7DFFF002800DDB081BE
:10445000B089002800D19DE020000021340006959D
:10446000059003970291002504E069460978AA297E
:1044700054D160820298A189884200DB89E0608A79
:10448000421C62820399029BC95C019B19540298E9
:10449000401C029068460399029BC918491E09787E
:1044A000017008466946887004953C4803784B7053
:1044B00041680120002B06D16B469B78412B02D12D
:1044C0000121012315E0002911D06B465B7800BF64
:1044D00095A6F65C6F46BF78BE4208D15B1C092BDF
:1044E00001D3049003E06B465B785B1C01E0002184
:1044F00000232A4E7160337004990029B5D000BFA3
:104500005AA100BF5CA0FEF705F8172263A16069FD
:10451000FFF77FFF00206082A0813CE0A529A9D1A0
:1045200092B2042A30DBD21E059890422ADB019811
:10453000407800281DD005281ED10198811C0698BE
:1045400000F054FE0600002E03DC00BF59A0618A73
:1045500015E00398029DA1894A1B002A02DD41193A
:1045600000F0EEFEA089401BA08100206082300098
:1045700011E000BF5AA008E05CA001990978FDF79E
:10458000C9FF04E05EA000E064A0FDF7C3FF658200
:1045900070E7A581002007B0F0BD00005C67002037
:1045A00010B504002068801C00F0B8FDAA21226824
:1045B0001170052122685170A5212268121891708E
:1045C000C21C21686069FFF724FF10BD80B54069F7
:1045D000FFF71FFF02BD80B54069FFF715FF02BD61
:1045E00070B505000E001C20FEF76CF9040028D001
:1045F0001C21FDF7DFFDA5618020800020824500A1
:104600002800FEF75FF9A0602800FEF75BF9206044
:104610002800FEF757F960603000FDF743FF606146
:10462000002801D0200070BD2068002801D0FEF7CE
:104630005CF96068002801D0FEF757F92000FEF70A
:1046400054F9002070BD10B504006069FDF75AFFF1
:10465000A068FEF74AF92068FEF747F96068FEF7A0
:1046600044F92000FEF741F9002010BD7374706C0E
:104670006C635F726561640025733A6765742072CC
:10468000657120646576206E616D652062792061B8
:104690007420636F6D6D616E640D0A002B4E414D89
:1046A000453A4A64577554756F0D0A0D0A4F4B0D04
:1046B0000A0D0A003E3E3E3E3E3E3E3E3E3E3E3EF1
:1046C0003E3E3E3E3E3E3E6261736536345F64650B
:1046D00063206572726F723A25640D0A0000000053
:1046E0004C4C435F464C41470D0A0000756E6B6EA3
:1046F0006F7720646174613A253032780D0A0000CA
:104700006C6C63206672616D65206C656E732074DD
:104710006F206C6F6E670D0A000000006C656E7391
:10472000203C2033200D0A0041542B4E414D453F83
:104730000D0000000100083141600021C943816083
:1047400001000831C16001000831016100210160F0
:10475000704700210161704742684A6093688B602E
:1047600093685960916008610168491C0160704755
:1047700030B50A680023DB439A4201D1036907E0A0
:104780000300083300E023005C682568AA42FAD2DF
:104790005A684A6091608B60596008610168491CE1
:1047A000016030BD0169826843689A60426883682D
:1047B0005A604A68824201D182684A6000220261DE
:1047C0000868401E0860704710B503000C3B802449
:1047D00064049C6059602A491960203802602038BE
:1047E00010BD0000274800680021C943884201D05D
:1047F00072B6FEE772B6FEE780B523480168FF2275
:1048000012040A4302600168FF2212060A43026092
:1048100000F03EF800201B49086000F064FC002016
:1048200002BD0000802040051849086006E0000035
:1048300072B614480168491C016000BFBFF34F8F76
:10484000BFF36F8F704700000E480168002901D147
:1048500072B6FEE7491E0160002900D162B67047BA
:1048600010B500F051FC0400FEF734FC002803D022
:104870008020400505490860200000F049FC10BD7B
:10488000E54700080000002020ED00E004ED00E016
:1048900010B5054C054800686421FCF7DFFF401E99
:1048A00060600720206010BD10E000E004000020E0
:1048B00080B501206C490A6802430A600A6810400A
:1048C00000900098802040054A6802434A60496889
:1048D000084000900098002203210120C04300F00E
:1048E0005DFD01BD00686149884200D0704780B518
:1048F00010205F490A6802430A6009680840009076
:10490000009800220321112000F048FD112000F042
:1049100049FD01BDF8B586B0040068461421FDF7D5
:104920004BFC22680324002604270225A8045149D1
:10493000514B9A4239D18A68430813438B608A6885
:1049400043081A400592059A0A68830813430B60CE
:104950000A6883081A400592059A0A6802430A60A9
:104960000A6810400590059808685A0002430A60DA
:10497000086859000840059005984020009001956E
:1049800002960394049769469020C00500F02EFD1E
:10499000302000900195029603940120049069460E
:1049A000364800F023FD009531E0354B9A4235D171
:1049B0008A6802438A608A68104005900598280436
:1049C0000A6802430A600A68104005900598680466
:1049D0000A6802430A6009680840059005980120AA
:1049E0000090122001900296039404976946800675
:1049F00000F0FCFC23480090019502960394049774
:104A000069469020C00500F0F1FC802000900195DF
:104A100002960394049769461B4818E01B4B9A4280
:104A20001FD120224B6813434B604B681A400592FC
:104A3000059A0A6802430A600968084005900598CB
:104A40000094019502960394049569460B4800F082
:104A5000CDFC002203211D2000F0A0FC1D2000F051
:104A6000A1FC07B0F0BD000018100240001000408B
:104A70001C1002401410024000480040000800488A
:104A8000004C004002800000000400480014014077
:104A900001480068704700BF6467002070B50022BD
:104AA000002401212123C35C022B03D00422826352
:104AB000012415E003681D680E26B5431D600368D8
:104AC0001D688D431D60036C01259D40C36B5D60B7
:104AD0002123C15420214254416B002900D0884732
:104AE000200070BD7047FEE7F1B582B0B64C00788B
:104AF000C00700D406E10C218025AD0260680840A3
:104B000004280AD068086268114008290ED161683B
:104B1000C02252020A40824208D12068054034D0A7
:104B200002984068002822D10120FEBD02994A68FF
:104B3000012A09D0A549A64B002A09D0052A07D188
:104B4000216882000A43226021680843206005E052
:104B5000206803402360206801402160029840687B
:104B600000280DD0FFF794FF06002068284000D0F1
:104B7000C8E0FFF78DFF801B6528F6D30320FEBD3C
:104B8000FFF786FF06002068284000D1BAE0FFF753
:104B90007FFF801B6528F6D3F0E7FFF779FF801BC6
:104BA000022800D8E4E0E9E70298C06800282068FD
:104BB0000FD0012101432160FFF76AFF0600206842
:104BC000800700D5BCE0FFF763FF801B0228F6D901
:104BD000D4E7012188432060FFF75AFF022706002F
:104BE0002068384000D1B2E0FFF752FF801B022856
:104BF000F6D9C3E7012188436062FFF749FF022726
:104C00000600606A384000D1B6E0FFF741FF801B24
:104C10000228F6D9B2E70420C0430122D24300297A
:104C20000AD0052908D1206A042101432162206AA3
:104C300001210143216205E0216A0A402262216AC2
:104C4000084020620298806800280FD0FFF720FFFC
:104C5000964900910600206A800700D5C1E0FFF761
:104C600017FF801B00998842F5D387E7FFF710FFF5
:104C70008E4900910600206A800700D4B1E0FFF75A
:104C800007FF801B00998842F5D377E7FFF700FF05
:104C9000801B022800D8C0E070E7FFF7F9FE801BF8
:104CA000022800D8D7E069E70421C9438842606B35
:104CB00002D101406163B4E0042101436163606B90
:104CC000012188436063FFF7E3FE02270600606B63
:104CD000384000D1ACE0FFF7DBFE801B0228F6D99C
:104CE0004CE701402160FFF7D3FE8027BF04060098
:104CF0002068384000D1D6E0FFF7CAFE801B0228AA
:104D0000F6D93BE70C2502200299096801401ED024
:104D1000F827FF43616829400AD0616829400829C3
:104D200004D161686A030A4081038A4200D03BE7EC
:104D30002168084004D00298C068012800D0F3E63A
:104D40002068074002980069C0003843206002983C
:104D50000078000710D50298C0690028606A00D169
:104D600048E7012101436162FFF792FE0227060036
:104D7000606A384000D110E702980078400736D5C5
:104D8000002780204005E169014007D1E169014326
:104D9000E161E169084000900098012790480068AF
:104DA000C00517D48E480168820D0A430260FFF7E0
:104DB0006FFE06008A480068C0050BD4FFF768FE46
:104DC000801B6528F6D3D9E600100240FFFFFBFFE9
:104DD000FFFFFEFF02988168012900D01BE7206ACF
:104DE00027E7002F03D0E06992490140E161029872
:104DF0000078C0061CD502984069F827FF430128B7
:104E000000D051E7606B042101436163606B0121B5
:104E100001436163FFF73CFE0600606B800700D42E
:104E200034E7606B074002988069C00038436063D4
:104E30000298006A002836D061680D40082D00D124
:104E400072E682490228206800D04AE701402160CA
:104E5000FFF71EFE06002068800100D51DE7E06A0E
:104E60000F2188430299C96A0143E1626068784969
:104E700001400298806A08430299496A01436160CF
:104E800020688021490401432160FFF701FE0600EC
:104E90008025AD042068284005D1FFF7F9FD801B6F
:104EA0000228F7D96AE60020FEBD00008913000041
:104EB000F2B582B00127FF43012466490968214009
:104EC000029A91420AD263490A683A40029B13430C
:104ED0000B6009682140029A914274D100905E4DA6
:104EE000022000990968014006D06968F0229143C8
:104EF000009A92680A436A6000990968214052D07A
:104F000000994968012902D12868800303E0022939
:104F100003D12868800103D455E02A68104052D09C
:104F200068680322904301436960FFF7B1FD060002
:104F3000009840684949019101280CD168680C210A
:104F4000014004292FD0FFF7A3FD801B019988425F
:104F5000F4D30320FEBD022837D168680C2101403C
:104F6000082920D0FFF794FD801B01998842F4D3D3
:104F7000EFE700980078400706D568683849014097
:104F80000098C0680843686000F02CF835496A68EA
:104F90001206120F895CC84033490860032000F0F4
:104FA00009FB0020FEBD2B48029902682240914275
:104FB000DFD201680F400299394301600068044064
:104FC00002988442D5D00120FEBD68680C210140C2
:104FD000E9D0FFF75DFD801B01998842F5D3B8E762
:104FE0000070004070B521490B682148214A0C240B
:104FF0001C40042C02D0082C02D070BD100070BDE3
:105000000F2500BF1DA49E0C2E40A45D1FA6896A1B
:105010000D40715DC0256D021D4080235B029D42E5
:1050200000D11000FCF71AFC604370BD0E48006808
:1050300070470000FFFFFFEF0B4800680E490B4A66
:1050400012685205520F895CC8407047FFFFFFFE8F
:10505000FF7FC2FF002002400010024089130000C1
:10506000FFF8FFFF405C000804000020041002402D
:1050700000127A0000366E011C5E0008020304056F
:10508000060708090A0B0C0D0E0F1010010203048D
:1050900005060708090A0B0C0D0E0F107047FEE7F6
:1050A00080F308887047EFF309801B4B1A6820389B
:1050B0001060F0C044464D4656465F46F0C008B505
:1050C00072B6FEF767F862B60CBC1168086810305B
:1050D000F0C8A046A946B246BB4680F309882038EE
:1050E000F0C8184770470C4B19680868203080F3E7
:1050F0000988022080F31488BFF36F8F3FBCAE464F
:1051000008BC04BC62B61847EFF3108072B6704753
:1051100080F31088704700004C660020F0B585B021
:105120000024002762A603900091049220E0681EEC
:10513000007880003C210140287880090818305C04
:1051400002990870019C28788006800E305C0399D3
:105150000855641C0BE0681E0078000130210140F6
:10516000287800090818305C02990870019C7F1C9F
:10517000039800190290601C0190049887421ED287
:105180000098C51938000321FCF768FB002903D0FB
:105190000229CCD0DFD3EAE728788008E3E70129A9
:1051A0000AD10099C95D0907890E715C029A1170D4
:1051B00001996854491C0391039805B0F0BD039D03
:1051C00003947F1E032438000321FCF747FB3D2096
:1051D0000029E4D10099C95D0C402101715C029A5B
:1051E000117001996854491CE3E70000F0B585B0DF
:1051F00003000C001500002700226019801E00909B
:10520000E81E0290A81E019019000494039514E072
:105210001E7834191C702F000EE01E78A7063F0F71
:10522000F6191E702F00019B9A4203D3009B5B78F6
:105230003D2B01D0A301CB55521C039B9A4231D286
:1052400003261640049B9B5C1C003D2C2AD02B3B64
:10525000502B2AD226A31B192B3B00241C570023BA
:10526000DB439C4221D0CB197D1C002E05D0022EA1
:10527000D3D005D3032ECBD0DEE7A4001C70DBE730
:105280001F78BC46270903263E406746BE191E709C
:105290002F00029B9A4203D3009B1B783D2BCBD05F
:1052A0002301C8E7380005B0F0BD0020FBE700008F
:1052B0004142434445464748494A4B4C4D4E4F5066
:1052C0005152535455565758595A61626364656632
:1052D0006768696A6B6C6D6E6F70717273747576E6
:1052E0007778797A303132333435363738392B2F75
:1052F0003EFFFFFF3F3435363738393A3B3C3DFF00
:10530000FFFFFFFFFFFF0001020304050607080976
:105310000A0B0C0D0E0F1011121314151617181975
:10532000FFFFFFFFFFFF1A1B1C1D1E1F2021222352
:105330002425262728292A2B2C2D2E2F30313233B5
:1053400012420FD0814202D25318984203D310B5B3
:10535000FBF742FF08BD80185B1E1978401E0170E4
:10536000521EF9D17047FEE718B5C200182313404A
:10537000FF249C40E2438907090E9940002804D588
:10538000164B0007000F083800E0154B800880001E
:10539000181803681A401143016011BD80B5FFF76A
:1053A000E3FF01BD0121C006C00E81400D48016030
:1053B000704710B5401E80214904884201D3012066
:1053C00010BD094C606003210020C043FFF7CCFFF3
:1053D0000020A0600721216010BD00001CED00E04E
:1053E00000E400E000E100E010E000E0F0B585B08E
:1053F0000A0000230F210491010031E0052403E09D
:10540000654CA142FAD10324AC40344302980460B5
:1054100062480568019EF44325405668F60302D5AC
:105420002E00019D35430560456825405668B6034A
:1054300002D52E00019D354345608568254056689C
:10544000F60202D52E00019D35438560C5682C40CB
:105450005568AD0202D52500019C2C43C4605B1C3D
:1054600010680400DC4000D181E0012401259D404A
:1054700003950540019501980028F0D068469D00ED
:1054800045705068022801D0122811D1D808800038
:105490000D18286A6E4677781C263E40049FB74058
:1054A000B8431769BC4637006646BE4006432E62C5
:1054B0000D6868465E00067003206E463778032646
:1054C000BE40F74302973E462E40556805406F4662
:1054D0003F78BD4035430D605568012D05D0022D44
:1054E00003D0112D01D0122D11D18E68029D3540AF
:1054F000D6686F463F78BE402E438E604D68039E4F
:10550000B5435668360926409E402E434E60CE680D
:10551000029D354096686F463F78BE402E43CE6070
:105520005568ED009BD51E4D2E6826432E602D68D4
:1055300025400295029D1B4D9E08B600AD190295AF
:105540002E686D466F780C253D40049FAF40BE43EA
:105550009027FF05B94201D1002455E7124FB94207
:10556000FBD0124CA14200D04AE702244CE705B020
:10557000F0BD81B0002A01D0816100E0816201B0FC
:1055800070470B4A1368034000D1704780B5106024
:1055900000F022F801BD0000000C004800040140AA
:1055A00018100240080001400004004800080048AC
:1055B0001404014010B50400FFF738FDFA218900FA
:1055C000FCF74CF9FFF7F5FE002221000020C04354
:1055D000FFF7E4FE002010BD80B500BFB4A1042891
:1055E00002D100BFB8A002E0402802D1BCA0FCF765
:1055F00091FF01BDF8B500F0C3F900F085F800F0A7
:10560000A5F89F4D9F482867E12040026867002465
:10561000AC67EC6780202C502E0084360C27376056
:105620007460B460F460346128007030FDF781FF6D
:105630000122954928007030FEF70EF88F489349F3
:105640000160E121490241608460C46004614761F6
:105650008461C46104624462FDF740FF8C482860A5
:10566000E12040026860AC60EC602C616F61AC616D
:10567000EC612C626C622800FDF730FF8548F06514
:105680008548306674666320B06674672800E03031
:1056900000F094F900F087F9060000F081F90700A6
:1056A00000F07BF933003A00010000BFACA0FCF72A
:1056B00031FF3820FDF706F9060080212430FDF780
:1056C000AFF8002802D000BF8BA010E0802130008E
:1056D0002830FDF7A5F8002802D000BF8DA006E015
:1056E00030002C30FDF75CF8002803D090A0FCF7C8
:1056F00011FF02E0902040002C5004213000FCF704
:105700003DFCFDF739F8FEE738B590B004A830212C
:10571000FCF752FD68461021FCF74EFD0120049075
:10572000059002240C9400040D9000250E950F9511
:1057300004A8FFF7D9F9072000900194029503957A
:1057400001216846FFF7B4FB11B030BDF8B586B053
:1057500068461421FCF730FD802109034F48026898
:105760000A43026002681140059105998021C9032E
:1057700002680A4302600268114005910599802180
:10578000890202680A430260026811400591059986
:105790008021C90202680A43026002681140059133
:1057A00005998021490302680A43026000680140AC
:1057B000059105980022E02189003948FFF7D9FEBC
:1057C0000C200090022401940025029503260396E4
:1057D0000127049769469020C005FFF707FE0420C3
:1057E000009030480190029569462F48FFF7FEFD72
:1057F000402000902B480190029569462848FFF709
:10580000F5FDE0208000009001970295039669461F
:105810002348FFF7EBFDF020400100900194029532
:105820000396049769469020C005FFF7DFFDE0026C
:105830000090019402950396049469461848FFF776
:10584000D5FD0420009001940295039604946946C6
:105850001648FFF7CBFD002203210620FFF79EFD2F
:105860000620FFF79FFD002203210720FFF796FD8A
:105870000720FFF797FD07B0F0BD000094660020F9
:10588000C4640020004C00400A00002000140140C5
:1058900000480040001000407FBB00001410024090
:1058A000000800480000211000040048000C0048D7
:1058B00048414C5F4750494F5F455854495F4361E9
:1058C0006C6C6261636B000025733A50494E5F3225
:1058D000206973207075736865640D0A000000000C
:1058E00025733A50494E5F3620697320707573688E
:1058F00065640D0A000000006372656174652073C1
:10590000656E64207175657565206661696C2E0D24
:105910000A00000063726561746520726563762019
:105920007175657565206661696C2E0D0A00000051
:1059300063726561746520756172742073656E644D
:1059400020636F6D706C657465642073656D617044
:10595000686F7265206661696C2E0D0A0000000098
:1059600044657669636520555549443A5B25303472
:10597000782D253034782D253034785D0D0A0000DF
:1059800080B50A48016810220A4302600320FFF72D
:1059900011FEFEF78DFF002002BD0548006870472C
:1059A00004480068704704480068704700200240BF
:1059B000ACF7FF1FB0F7FF1FB4F7FF1F10B50400CF
:1059C00001D1012010BD3D20205C002804D13C21E4
:1059D00060542000FEF786FFFFE702203D2160545F
:1059E000211D206800F0AEF801203D216054002008
:1059F00010BDF8B504002068002502260169314079
:105A000015D0C168314012D00221C9430161012182
:105A100021778069800703D02000FCF7CFFB05E0E9
:105A2000200000F0D7F8200000F0D5F82577206896
:105A300004270169394016D0C168394013D00421C8
:105A4000C943016126778069C0218900014003D0E4
:105A50002000FCF7B3FB05E0200000F0BBF82000BD
:105A600000F0B9F82577206808260169314014D084
:105A7000C168314011D00821C94301612777C0694D
:105A8000800703D02000FCF799FB05E0200000F020
:105A9000A1F8200000F09FF8257720681021026906
:105AA0000A4016D0C268114013D01021C9430161C9
:105AB0002677C069C0218900014003D02000FCF78F
:105AC0007DFB05E0200000F085F8200000F083F861
:105AD00025772068012102690A4008D0C268114078
